:020000040800F2
:10000000100F0020C10100083F0D0008590C000826
:100010003B0D00086D040008751600080000000084
:10002000000000000000000000000000F9110008BE
:10003000A104000800000000890E0008E512000875
:10004000DB010008DB010008DB010008DB01000820
:10005000DB010008DB010008A3040008DB01000845
:10006000DB010008DB010008DB010008DB01000800
:10007000DB010008DB010008DB010008DB010008F0
:10008000DB010008DB010008DB01000800000000C4
:10009000000000000000000000000000DB0100087C
:1000A000DB010008DB010008DB010008DB010008C0
:1000B000DB010008DB010008DB010008DB010008B0
:1000C000DB010008DB010008DB010008DB010008A0
:1000D000DB0100084D13000881130008B11300086C
:1000E000DB010008DB010008DB0100080000000064
:1000F0000000000000000000000000000000000000
:1001000000000000000000000000000000000000EF
:100110000000000000000000DB010008DB01000817
:1001200000F002F800F03CF80AA090E8000C8244CD
:100130008344AAF10107DA4501D100F031F8AFF2AA
:10014000090EBAE80F0013F0010F18BFFB1A43F0B5
:10015000010318476820000088200000103A24BFDF
:1001600078C878C1FAD8520724BF30C830C144BF1C
:1001700004680C607047000000230024002500265E
:10018000103A28BF78C1FBD8520728BF30C148BFFA
:100190000B607047002070471FB51FBD10B510BD24
:1001A00000F036F91146FFF7F7FF01F045FD00F0CA
:1001B00054F903B4FFF7F2FF03BC01F083FA000027
:1001C0000948804709480047FEE7FEE7FEE7FEE7EB
:1001D000FEE7FEE7FEE7FEE7FEE7FEE70448054927
:1001E000054A064B70470000E9120008210100088B
:1001F00010090020100F0020100B0020100B002011
:10020000704700000FB4044910B503AA029800F02B
:1002100021F810BC5DF814FB1800002070477047EF
:100220007047704701694A1C02610878704700B541
:100230008FB0CDE901310021059105497944CDE91F
:1002400003101146684600F017F80FB000BD00001B
:10025000E5FFFFFF074B70B50D467B44FFF7E7FF57
:100260000446284600F0CCF810B14FF0FF3070BDC6
:10027000204670BD4F1800002DE9F05F8946044606
:100280004FF0000ADFF874B1FB44C0F820A020460C
:10029000E1688847002874D0252806D0D4E90121D8
:1002A0009047206A401C2062F1E700265F46204606
:1002B000E16888472028054607DB312D05D27819EB
:1002C00010F8200C08B10643F1E7B00701D526F07D
:1002D0000406C4F81CA00027C4F818A02A2D09D0D1
:1002E000284601F0E8F938B304EB8708303DC8F838
:1002F000185019E059F8041B204604EB870291615D
:10030000E1688847012F054618D1E069002820DA06
:1003100026F020061DE0D8F8180000EB800005EB61
:1003200040003038C8F818002046E1688847054684
:1003300001F0C1F90028EED1012F0AD02E2D08D1ED
:100340002046E16888477F1C0546022F46F02006BC
:10035000C4DBA069002803DA404246F00106A06130
:10036000F00701D026F010066C2D0BD0682D09D0B7
:100370004C2D39D06A2D35D0742D35D07A2D33D00F
:1003800016E038E0E1682F4620468847B842054627
:1003900009D16C2F26D04FF48060E16806432046D7
:1003A0008847054604E06C2F1AD04FF4807006434E
:1003B0000DB3A5F14100192802D8203546F4006696
:1003C0004A462946204626604E46FFF7E3FE80B1A6
:1003D00001280BD0F61D26F0070000F1080956E7AA
:1003E0004020E4E78020D8E70020D6E706F10409A2
:1003F0004DE7284652E7206ABDE8F09F1C1F000029
:10040000007B00F08000704700487047B008002073
:100410007546FFF7F9FFAE4605006946534620F0E2
:100420000700854618B020B5FFF7D8FEBDE820408C
:100430004FF000064FF000074FF000084FF0000BA0
:1004400021F00701AC46ACE8C009ACE8C009ACE853
:10045000C009ACE8C0098D46704710B50446AFF33B
:1004600000802046BDE81040FFF7A3BE00BFFEE7B6
:1004700000B5094801F0EAF8002304E0002006492D
:10048000C854581CC3B2054800788342F6DB0020EC
:100490000249087000BD0000600000201C00002020
:1004A000704710B5012000F00DF820B101F044FBB9
:1004B000012000F001F810BD0149086070470000FC
:1004C00014040140014600200022074B1B6803EA88
:1004D0000102054B14331B680B4013B10AB1012014
:1004E00000E0002070470000000401400021234983
:1004F0008279002A3AD00A46126803689A430B466A
:100500001A600A1D126803689A430B1D1A6002796B
:1005100011440A6803681A430A60184A08321268CC
:1005200003689A43154B08331A601A1D1268036852
:100530009A43124B0C331A604279102A0ED11A1FBB
:10054000126803681A430D4B08331A601A1D1268AB
:1005500003681A43094B0C331A600DE007494279CE
:1005600011440A6803681A430A6005E002791144DD
:100570000A6803689A430A6070470000000401405B
:1005800030B500228B071C0F0F2303FA04F20B4B2C
:100590008C1053F824309343084C8D1044F82530C8
:1005A00023468C1053F824308C07240F00FA04F4EF
:1005B0002343024C8D1044F8253030BD0800014023
:1005C0002DE9F041024600250026002000230024EA
:1005D000002791F803C00CF00F0591F803C00CF050
:1005E000100CBCF1000F03D091F802C04CEA0505D5
:1005F00091F800C0BCF1000F31D0146800202BE04E
:100600004FF0010C0CFA00F3B1F800C00CEA03063D
:100610009E4220D183004FF00F0C0CFA03F7BC432D
:1006200005FA03FC4CEA040491F803C0BCF1280F5E
:1006300006D14FF0010C0CFA00FCC2F814C00AE01D
:1006400091F803C0BCF1480F05D14FF0010C0CFA32
:1006500000FCC2F810C0401C0828D1D31460B1F8C7
:1006600000C0BCF1FF0F34DD546800202EE000F123
:10067000080C4FF0010808FA0CF3B1F800C00CEABE
:1006800003069E4221D183004FF00F0C0CFA03F7B2
:10069000BC4305FA03FC4CEA040491F803C0BCF126
:1006A000280F05D100F1080C08FA0CF8C2F81480E4
:1006B00091F803C0BCF1480F07D100F1080C4FF0CE
:1006C000010808FA0CF8C2F81080401C0828CED3A4
:1006D0005460BDE8F0810246002093680B400BB1E6
:1006E000012000E0002070474161704701617047C0
:1006F00010B50024FFF7BCFE11A0FFF783FD4FF4F7
:10070000FA7001F089F912A1144801F04AFB04467D
:1007100034B113A0FFF776FD4FF4FA7001F07CF9C5
:10072000FFF7A6FE12A0FFF76DFD4FF4FA7001F07F
:1007300073F9FFF79DFE13A0FFF764FD10BD0000E5
:1007400041542B434750535057523F0D0A0000006D
:100750002B434750535057523A203000600000203E
:1007600041542B434750535057523D310D0A00001E
:1007700041542B434750535354415455533F0D0A52
:100780000000000041542B434750534F55543D3215
:1007900035350D0A0000000010B50024CFA0FFF78A
:1007A00031FD4FF4FA7001F037F9CCA0FFF72AFDC4
:1007B0004FF4FA7001F030F9CAA1CB4801F0F1FA18
:1007C00004460DE0FFF754FEC4A0FFF71BFD4FF4F5
:1007D000FA7001F021F9C3A1C34801F0E2FA04461E
:1007E000002CEFD0C1A0FFF70DFD4FF4FA7001F01F
:1007F00013F9C0A0FFF706FD4FF4FA7001F00CF9F1
:10080000BFA1B94801F0CDFA04460DE0FFF730FE74
:10081000B8A0FFF7F7FC4FF4FA7001F0FDF8B8A1AB
:10082000B14801F0BEFA0446002CEFD0FFF720FEDD
:10083000B7A0FFF7E7FCFFF71BFEB8A0FFF7E2FC4D
:100840004FF4FA7001F0E8F8B7A1A74801F0A9FA4F
:1008500004460DE0FFF70CFEB0A0FFF7D3FC4FF409
:10086000FA7001F0D9F8B3A19F4801F09AFA044652
:10087000002CEFD0FFF7FCFDB1A0FFF7C3FC4FF455
:10088000FA7001F0C9F8B2A1974801F08AFA04465B
:100890000DE0FFF7EDFDAAA0FFF7B4FC4FF4FA70EE
:1008A00001F0BAF8ADA1904801F07BFA0446002CA3
:1008B000EFD0FFF7DDFDACA0FFF7A4FC4FF4FA701A
:1008C00001F0AAF8ACA0FFF79DFC4FF4FA7001F01C
:1008D000A3F8ADA1844801F064FA04460DE0FFF7E7
:1008E000C7FDA5A0FFF78EFC4FF4FA7001F094F855
:1008F000A5A17D4801F055FA0446002CEFD0FFF782
:10090000B7FDA3A0FFF77EFC4FF4FA7001F084F866
:1009100074A1754801F045FA04460DE0FFF7A8FD03
:100920009BA0FFF76FFC4FF4FA7001F075F86DA112
:100930006D4801F036FA0446002CEFD0FFF798FD21
:1009400098A0FFF75FFC4FF4FA7001F065F865A11D
:10095000654801F026FA04460DE0FFF789FD91A0F5
:10096000FFF750FC4FF4FA7001F056F85DA15E48B5
:1009700001F017FA0446002CEFD0FFF779FD90A0A4
:10098000FFF740FC4FF4FA7001F046F855A15648C5
:1009900001F007FA04460DE0FFF76AFD88A0FFF7B3
:1009A00031FC4FF4FA7001F037F84EA14E4801F0D7
:1009B000F8F90446002CEFD0FFF75AFD84A0FFF7AA
:1009C00021FC4FF4FA7001F027F846A1464801F0E7
:1009D000E8F904460DE0FFF74BFD7DA0FFF712FCA0
:1009E0004FF4FA7001F018F83EA13F4801F0D9F930
:1009F0000446002CEFD0FFF73BFD7BA0FFF702FC85
:100A00004FF4FA7001F008F836A1374801F0C9F93F
:100A100004460DE0FFF72CFD73A0FFF7F3FB4FF446
:100A2000FA7000F0F9FF2FA12F4801F0BAF904463F
:100A3000002CEFD0FFF71CFD6FA0FFF7E3FB4FF496
:100A4000FA7000F0E9FF27A1274801F0AAF904464F
:100A50000DE0FFF70DFD68A0FFF7D4FB4FF4FA702F
:100A600000F0DAFF1FA1204801F09BF90446002C9A
:100A7000EFD0FFF7FDFC64A0FFF7C4FB4FF4FA7062
:100A800000F0CAFF17A1184801F08BF904460DE0E9
:100A900069A1154801F085F904466AA1124801F0E0
:100AA00080F96C490860642000F0B6FF1CB9694801
:100AB00000680028ECD04FF4FA7000F0ADFF4FF45E
:100AC000FA7000F0A9FF4FF4FA7000F0A5FF4FF4A0
:100AD000FA7000F0A1FFFFF7CBFC10BD41540D0AE6
:100AE000000000004F4B00006000002041544530E2
:100AF0000D0A000041542B4350494E3F0D0A00009F
:100B00002B4350494E3A20524541445900000000C1
:100B100041542B434349440D0A0000002041542B0B
:100B2000435245473F0D0A002B435245473A203078
:100B30002C3500002B435245473A20302C31000021
:100B40002041542B43475245473F0D0A0000000007
:100B50002B43475245473A20302C35002B43475210
:100B600045473A20302C310041542B434950434CE7
:100B70004F53453D310D0A0041542B4349505348D2
:100B800055540D0A0000000053485554204F4B00A7
:100B900041542B4347434C4153533D2242220D0ABB
:100BA0000000000041542B434744434F4E543D3115
:100BB0002C224950222C22434D4E4554220D0A002E
:100BC00041542B43474154543D310D0A000000006D
:100BD00041542B434950435347503D312C22434D00
:100BE0004E4554220D0A000041542B4349504D55A7
:100BF000583D300D0A00000041542B4349504D4FE1
:100C000044453D310D0A000041542B434950535493
:100C10004152543D22544350222C22323432653109
:100C200031396E31392E716963702E766970222CDC
:100C300031373532330D0A00434F4E4E4543542071
:100C40004F4B0000414C524541445920434F4E4EBA
:100C5000454354002C00002000BFFEE770B5044659
:100C60004FF480500849086044F0800000F062FAB8
:100C7000FF2000F05FFA05464FF480500249091F3B
:100C80000860284670BD0000140C014070B5054690
:100C90000C464FF4805008490860284600F04AFA94
:100CA0000646204600F046FA4FF480500249091FDC
:100CB0000860304670BD0000140C014010B501F012
:100CC00045F880216B20FFF7E1FF642000F0A4FECF
:100CD00000216B20FFF7DAFF07211A20FFF7D6FF6C
:100CE00030213720FFF7D2FF4D212420FFF7CEFF20
:100CF00020216A20FFF7CAFF01216720FFF7C6FF06
:100D000081212720FFF7C2FF07211920FFF7BEFF2F
:100D100018211B20FFF7BAFF18211C20FFF7B6FF90
:100D200008211D20FFF7B2FF01210B2000F0E6FE95
:100D300012210A2000F0E2FE10BD00BFFEE770475E
:100D400070B5002100230F22C47804B3154C246829
:100D500004F4E064C4F5E064210AC1F10403CA406C
:100D6000447804FA03F184781440214309010E4CBD
:100D70000678A155047804F01F050124AC400578DD
:100D80006D11AD0005F1E025C5F8004109E00478DA
:100D900004F01F050124AC40044D0678761145F897
:100DA000264070BD0CED00E000E400E080E100E0D2
:100DB00002490143024A1160704700000000FA0531
:100DC0000CED00E010B5002401F034F801F048F813
:100DD00001F060F827A0FFF715FA4FF4967000F0C5
:100DE0001BFE26A1264800F0DCFF044621A0FFF7E9
:100DF00009FA4FF4967000F00FFE20A1204800F091
:100E0000D0FF0446BCB920211E48FFF76DFC4FF40B
:100E1000967000F001FE4FF4967000F0FDFD202169
:100E20001848FFF763FC4FF47A7000F0F5FD4FF4BB
:100E30007A7000F0F1FD0FA0FFF7E4F94FF496701F
:100E400000F0EAFD0DA10E4800F0ABFF04460BE0F8
:100E500008A0FFF7D7F94FF4967000F0DDFD07A169
:100E6000074800F09EFF0446002CF1D0FFF700FB7E
:100E700010BD000041540D0A000000004F4B00005F
:100E800060000020000801407047000029B1064AB8
:100E9000D2690243044BDA6104E0034AD269824317
:100EA000014BDA61704700000010024029B1064A88
:100EB00012690243044B1A6104E0034A1269824337
:100EC000014B1A61704700000010024029B1064A28
:100ED00092690243044B9A6104E0034A9269824397
:100EE000014B9A61704700000010024029B1064A88
:100EF000D2680243044BDA6004E0034AD2688243BA
:100F0000014BDA60704700000010024070B500210C
:100F100000230024002200252C4E766806F00C01E8
:100F200021B1042905D0082921D105E0284E066009
:100F300020E0284E06601DE0244E766806F470130B
:100F4000224E766806F48034022606EB93431CB9E1
:100F5000214E5E43066009E01C4EF66A06F00F065D
:100F6000751C1C4EB6FBF5F65E43066002E0184E9B
:100F7000066000BF00BF154E766806F0F001090953
:100F8000164E725C0668D6404660104E766806F4CF
:100F9000E061090A114E725C4668D64086600B4ECD
:100FA000766806F46051C90A0C4E725C4668D640F9
:100FB000C660064E766806F44041890B084E725CA6
:100FC000C668B6FBF2F6066170BD00000010024074
:100FD00000127A0000366E0100093D004C0000202E
:100FE0005C00002010B504463C20FFF737FE20705F
:100FF0003B20FFF733FE60703E20FFF72FFEA0700E
:101000003D20FFF72BFEE0704020FFF727FE207108
:101010003F20FFF723FE607110BD10B50446442049
:10102000FFF71CFE20704320FFF718FE607046207B
:10103000FFF714FEA0704520FFF710FEE070482077
:10104000FFF70CFE20714720FFF708FE607110BD0E
:101050002DE9F0410446102000F036FD0546112030
:1010600000F032FD0646122000F02EFD0746022059
:1010700000F02AFD00F00200002859D1032000F002
:1010800023FD2070092000F01FFD00F0080001285A
:1010900003D1032000F018FD2070042000F014FD9F
:1010A0006070092000F010FD00F00800012803D155
:1010B000042000F009FD6070052000F005FDA0701F
:1010C000092000F001FD00F00800012803D10520EF
:1010D00000F0FAFCA070062000F0F6FCE070092099
:1010E00000F0F2FC00F00800012803D1062000F017
:1010F000EBFCE070072000F0E7FC2071092000F015
:10110000E3FC00F00800012803D1072000F0DCFC1C
:101110002071082000F0D8FC6071092000F0D4FC98
:1011200000F00800012803D1082000F0CDFC607118
:10113000BDE8F08170B50546002405E0601CC4B22E
:10114000C82C01DD002070BD02210E4800F028F8F7
:101150000028F3D029460B4800F02EF8002405E0C3
:10116000601CC4B2C82C01DD0020ECE70121054859
:1011700000F016F80028F3D0024800F01AF8C0B2C8
:10118000E1E700000038004021B1028842F040024F
:10119000028004E002884FF6BF731A400280704755
:1011A0000246002013890B400BB1012000E0002013
:1011B00070470146888970478181704710B50022C9
:1011C000028802F441520B884C8823438C882343C5
:1011D000CC8823430C8923434C8923438C892343A4
:1011E000CC8923431A430280838B4FF2FF74234040
:1011F00083830B8A038210BD704710B500F002F89C
:1012000010BD00000CB50020019000902A48006835
:1012100040F480302849086000BF2748006800F487
:10122000003000900198401C0190009818B9019876
:10123000B0F5A06FF1D12048006800F4003010B183
:101240000120009001E0002000900098012831D199
:101250001948406818494860084640684860084690
:10126000406848600846406820F47C1048600846A2
:10127000406840F4403048600846006840F08070A4
:10128000086000BF0C48006800F000700028F9D02A
:101290000948406820F00300074948600846406854
:1012A00040F00200486000BF0348406800F00C00B6
:1012B0000828F9D10CBD000000100240042808D114
:1012C0004FF0E021096941F004014FF0E022116183
:1012D00007E04FF0E021096921F004014FF0E0221E
:1012E000116170477047000010B51448006840F065
:1012F00001001249086008464068114908400F493A
:101300004860084600680F4908400C4908600846D4
:10131000006820F4802008600846406820F4FE0041
:1013200048604FF41F0088600020C862FFF765FF27
:101330004FF000600449086010BD0000001002403A
:101340000000FFF8FFFFF6FE08ED00E010B540F2E8
:101350002551084800F0B5F858B1064800F06CF97E
:10136000C1B2054802780078401C034B187003484E
:10137000815410BD003801401C0000206000002096
:1013800010B540F22551074800F09BF848B10548D8
:1013900000F052F90449487008464178034800F0CB
:1013A00050F910BD00440040600200200048004099
:1013B00010B540F225510C4800F083F898B10A4866
:1013C00000F03AF9C1B2094802680068401C074BB6
:1013D00018600748815418460068401E044A115C92
:1013E000014800F02EF910BD004800402800002000
:1013F000AF07002021B1828942F40052828104E0CB
:1014000082894DF6FF731A408281704710B50446F9
:101410002048844209D101218803FFF767FD00219C
:101420004FF48040FFF762FD32E01B48844209D14F
:1014300001214804FFF73AFD00214FF40030FFF787
:1014400035FD25E01548844209D101218804FFF7C4
:101450002DFD00214FF48020FFF728FD18E01048F3
:10146000844209D10121C804FFF720FD00214FF477
:101470000020FFF71BFD0BE00A48844208D1012140
:101480000805FFF713FD00214FF48010FFF70EFD54
:1014900010BD0000003801400044004000480040FA
:1014A000004C00400050004002460020B1F5007F93
:1014B00000D100BF13880B400BB1012000E00020D9
:1014C000704770B50246002400230025002040F636
:1014D0006A16B14200D100BFC1F3421501F01F03EB
:1014E000012606FA03F3012D02D19689334006E066
:1014F000022D02D1168A334001E0968A33400C1245
:10150000012606FA04F41688344013B10CB1012008
:1015100000E0002070BDF0B5034600240026002541
:10152000002040F66A17B94200D100BF1846C1F347
:10153000421401F01F06012707FA06F5012C01D11C
:101540000C3004E0022C01D1103000E014301AB14C
:1015500007682F43076002E00768AF430760F0BDEC
:101560002DE9F04786B005460E460024A24600BF8E
:10157000A1460027B08900B100BF2F462C8A4CF647
:10158000FF700440F08804432C82AC894EF6F310BF
:101590000440B08831890843718908430443AC8111
:1015A000AC8A4FF6FF400440B0890443AC8201A8E6
:1015B000FFF7ACFC1F48874202D1DDF810A001E024
:1015C000DDF80CA0A88900F4004040B10AEBCA0085
:1015D00000EB0A1031684900B0FBF1F807E00AEBB4
:1015E000CA0000EB0A1031688900B0FBF1F86420F2
:1015F000B8FBF0F004012009642101FB1089A889DF
:1016000000F4004040B1322000EBC900B0FBF1F023
:1016100000F00700044308E0322000EB09106421C9
:10162000B0FBF1F000F00F0004432C8106B0BDE8E0
:10163000F08700000038014001468888C0F30800A8
:101640007047C1F308028280704700000BE000BFC2
:101650000749098801F040010029F9D00178044ABE
:10166000121D1180401C01780029F0D17047000044
:101670000048004000BFFEE770B504460D4629460D
:101680002046FFF7DEFF00BF80212046FFF70CFF5A
:101690000028F9D070BD2DE9F04107460D461646E9
:1016A000002400BF295D3846FFF7E6FF641CB44202
:1016B000F8D3BDE8F08130380A2801D20120704704
:1016C00000207047014600BF704700002DE9F0413F
:1016D000F72000F00BF907462D4800684FF47A41D7
:1016E000C1EB6004A0104043C0122A49B1F90010B8
:1016F00000FB01F62848B0F90000604306EB400605
:10170000B0102649098800EB0146A0104043401361
:101710002349B1F900104843C1102248B0F9000034
:10172000604301EB6000841404F500401E49098801
:101730004843C41314B90020BDE8F081C7F58010F8
:10174000A0EB263040F6354100FB01F5B5F1004F26
:1017500003D26800B0FBF4F502E0B5FBF4F04500FD
:10176000E8084043400B1149B1F900104843041305
:10177000A8080F49B1F9001048434613A0190D49B4
:10178000B1F90010084405EB20152846D4E7000005
:10179000480000203C0000203A00002038000020D3
:1017A00036000020340000204600002042000020C7
:1017B000400000203E0000202DE9F041FA2000F01A
:1017C00095F80446E01010490988A0EB41000F4944
:1017D000B1F900104843C5120B480088C0EB241033
:1017E000404300130A49B1F9001048438613A81971
:1017F000084908600846006800EB80008030071246
:101800003846BDE8F0810000440000203000002090
:10181000320000204800002010B500F0C5F8B621C5
:10182000E02000F0A9F8FF21F42000F0A5F8002145
:10183000F52000F0A1F8C82000F0EEF8882000F0B4
:1018400070F81E4908808A2000F06BF81C49088057
:101850008C2000F066F81B4908808E2000F061F8AB
:1018600019490880902000F05CF8184908809220FF
:1018700000F057F816490880942000F052F81549F6
:101880000880962000F04DF813490880982000F059
:1018900048F8124908809A2000F043F8104908805F
:1018A0009C2000F03EF80F4908809E2000F039F897
:1018B0000D490880C82000F0AFF810BD440000209A
:1018C00030000020320000204600002034000020BC
:1018D00036000020380000203A0000203C000020A4
:1018E0003E00002040000020420000202DE9F04191
:1018F00004464FF00008204600F026F80546611C1B
:10190000C8B200F021F80646A11CC8B200F01CF8CD
:101910000746280340EA061040EA17184046BDE88B
:10192000F0812DE9F04104460025204600F00CF836
:101930000746611CC8B200F007F80646300205B23F
:101940003D432846BDE8F08170B5044600254FF4BC
:1019500080700849086044F08000FFF7EBFBFF202F
:10196000FFF7E8FB05464FF480700249091F086045
:10197000284670BD1408014070B505460C46002687
:101980004FF48070074908602846FFF7D3FB0646EE
:101990002046FFF7CFFB4FF480700249091F086013
:1019A000304670BD1408014008B501210420FFF73E
:1019B0008DFA4FF48070ADF8000010208DF8030010
:1019C00003208DF8020069460148FEF7F9FD08BDC5
:1019D0000008014010B56FF00400FFF76FFC0A48E3
:1019E00000680A49B0FBF1F0094908700846007820
:1019F00000EB4001C1EBC0104FF6FF7101EAC000DF
:101A00000449088010BD00000000002000127A0088
:101A100014000020160000200146114A12884A4393
:101A20004FF0E0235A6100229A611A46126942F08F
:101A300001021A6100BF4FF0E022106900F00102BC
:101A40001AB100F48032002AF5D04FF0E02212697A
:101A500022F001024FF0E0231A6100229A617047E0
:101A6000160000200EB501210846FFF72FFA0021CD
:101A70000846FEF785FD0120019000208DF8080042
:101A80000C208DF8090001208DF80A0001A8FEF74E
:101A90002DFD06208DF8000000208DF801000220A9
:101AA0008DF802006846FFF74BF90EBD00BF054AEE
:101AB000128802F04002002AF9D0C2B2014B1B1D6D
:101AC0001A8070470038014070B5044641F28835ED
:101AD0008C212520FFF7DAF821462620FFF7D6F8DB
:101AE000FF216320FFF7D2F800BF281EA5F10101F6
:101AF0008DB2FAD14920FFF7B1F870BD70B5044638
:101B00000D464FF4FA760C212520FFF7BFF8214649
:101B10002620FFF7BBF829466320FFF7B7F800BF80
:101B2000301EA6F101018EB2FAD170BD10B500F0E1
:101B30006BF900F0C9F910BD10B540210148FEF75E
:101B4000D3FD10BD000C014010B500BF01210548B8
:101B5000FEF7C1FD0028F9D140210348FEF7C6FD7C
:101B600010BD000000080140000C014008B5012133
:101B70000820FFF7ABF98020ADF8000010208DF8A9
:101B8000030003208DF8020069460248FEF718FDA5
:101B900008BD0000000C014008B501211020FFF72E
:101BA00095F94FF40050ADF8000010208DF80300B7
:101BB00003208DF8020069460F48FEF701FD4FF43F
:101BC0008040ADF8000010208DF8030003208DF850
:101BD000020069460848FEF7F3FC4FF40040ADF8F8
:101BE000000010208DF8030003208DF802006946E4
:101BF0000148FEF7E5FC08BD0010014008B50121D1
:101C00000820FFF763F90420ADF8000010208DF8DC
:101C1000030003208DF8020069460248FEF7D0FC5D
:101C200008BD0000000C014010B5FFF79FFFFFF753
:101C3000B3FFFFF7E3FF10BD88B00024FFF776FF86
:101C4000FFF7F2FFFFF780FFFFF7C4FE4FF4A0603D
:101C5000FFF7AEF8FFF706FF4FF4E13000F0AEF902
:101C60004FF4E13000F0FAF94FF4E13000F046FAB9
:101C700000F040F93220FFF7CFFEFFF71FF83220C7
:101C8000FFF7CAFEFFF7C8FD3220FFF7C5FE75203B
:101C9000FEF7E4FF8DF81E00D020FFF755FE8DF80B
:101CA0001F00FFF78FF825A0FEF7ACFAFEF720FD26
:101CB000FEF772FD4FF47A70FFF7AEFE4FF47A70C4
:101CC000FFF7AAFE4FF47A70FFF7A6FE35E003A8EF
:101CD000FFF788F90DF11200FFF79FF906A8FFF74B
:101CE000B7F9FFF769FD0190FFF7F0FC02903C2C7B
:101CF00015D24FF4FA70FFF78FFE1C2201A910488D
:101D0000FFF7C9FC4FF4FA70FFF786FE3B2C13D1A6
:101D1000012240F225510B48FFF7FDFB0CE04FF488
:101D2000FA70FFF779FE1C2201A90748FFF7B3FC00
:101D30004FF4FA70FFF770FE641CC8E72B2B2B00E2
:101D400000480040004400400038014008B501212F
:101D50000820FFF7BBF84FF48050ADF800001020CA
:101D60008DF8030003208DF8020069460148FEF754
:101D700027FC08BD000C0140F0B503460C461E468A
:101D8000A4460AE035789CF80070761C0CF1010C32
:101D9000E91B09B10846F0BD521E002AF2D100200D
:101DA000F9E72DE9F04104460D460027B8462878AA
:101DB00010B92046BDE8F08100BF00E0641C207827
:101DC00018B1207829788842F8D1002602E008F17D
:101DD0000108761CA05D0028F9D1002601E07F1CD7
:101DE000761CA85D0028FAD1B84500DAE2E73A4649
:101DF00029462046FFF7C0FF08B92046DAE7641CF1
:101E00004FF000080027D8E708B501210420FFF7AC
:101E10005DF80120ADF8000004208DF803000320D8
:101E20008DF8020069460248FEF7CAFB08BD0000B3
:101E30000008014008B501210420FFF747F82020E1
:101E4000ADF8000010208DF8030003208DF802008B
:101E500069460248FEF7B4FB08BD000000080140D7
:101E600008B501210820FFF731F80120ADF8000086
:101E700010208DF8030003208DF802006946044805
:101E8000FEF79EFB01210248FEF730FC08BD000072
:101E9000000C014008B501210820FFF717F80220C7
:101EA000ADF8000010208DF8030003208DF802002B
:101EB00069460448FEF784FB02210248FEF716FC3F
:101EC00008BD0000000C014008B501210820FEF704
:101ED000FDFF4020ADF8000010208DF80300032026
:101EE0008DF8020069460248FEF76AFB08BD000053
:101EF000000C014000B587B001210820FEF7E6FF85
:101F000001218803FEF7C2FF4FF40050ADF818001E
:101F100018208DF81B0003208DF81A0006A925480B
:101F2000FEF74EFB4FF48040ADF8180004208DF80A
:101F30001B0003208DF81A0006A91E48FEF740FB7F
:101F40004FF40040ADF8180018208DF81B00032056
:101F50008DF81A0006A91748FEF732FB4FF420410E
:101F60001448FEF7C3FB0020ADF804004FF4827064
:101F7000ADF806000020ADF808000220ADF80A0018
:101F80000120ADF80C004002ADF80E003820ADF88D
:101F900010000020ADF812000720ADF8140001A9D0
:101FA0000548FFF70BF901210348FFF7EDF807B0EB
:101FB00000BD0000000C01400038004010B586B0A4
:101FC0000446012144F20400FEF780FF4FF4007044
:101FD000ADF8140003208DF8160018208DF81700B6
:101FE00005A91C48FEF7ECFA4FF48060ADF8140028
:101FF00004208DF8170005A91648FEF7E1FA252000
:102000008DF8000002208DF801008DF802000120FB
:102010008DF803006846FEF793FE01940020ADF8AA
:102020000800ADF80A00ADF80C00ADF810000C2067
:10203000ADF80E0001A90848FFF792FA012240F21C
:1020400025510548FFF767FA01210348FFF7D2F948
:1020500006B010BD000801400038014010B586B040
:10206000044601210420FEF731FF01214804FEF758
:102070000DFF2048FFF7CAF90420ADF81400032033
:102080008DF8160018208DF8170005A91A48FEF7DC
:1020900097FA0820ADF8140004208DF8170005A960
:1020A0001548FEF78DFA26208DF8000001208DF8E6
:1020B000010002208DF8020001208DF8030068461F
:1020C000FEF73EFE01940020ADF80800ADF80A00CE
:1020D000ADF80C00ADF810000C20ADF80E0001A911
:1020E0000448FFF73DFA01210248FFF783F906B0E3
:1020F00010BD0000004400400008014010B586B04B
:10210000044601210820FEF7E1FE01218804FEF7C4
:10211000BDFE2348FFF77AF94FF48060ADF8140054
:1021200003208DF8160018208DF8170005A91D480A
:10213000FEF746FA4FF40060ADF8140004208DF865
:10214000170005A91748FEF73BFA27208DF8000075
:1021500002208DF801008DF8020001208DF80300A7
:102160006846FEF7EDFD01940020ADF80800ADF8DB
:102170000A00ADF80C00ADF810000C20ADF80E0010
:1021800001A90748FFF7ECF9012240F22551044864
:10219000FFF7C1F901210248FFF72CF906B010BD85
:1021A00000480040000C014004000008000000004E
:1021B000000000020001000010000000DC21000807
:1021C00000000020600000005C0100083C220008C4
:1021D00060000020B00E00007801000800366E019B
:1021E00000000000000000000102030406070809C7
:1021F00000000000000000000000000000000000DF
:1022000000000000000000000000000000000000CE
:1022100000000000000000000000000000000000BE
:1022200000000000000000000000000001020304A4
:0C22300001020304060708090204060866
:0400000508000121CD
:00000001FF
